{
  "_format": "hh-sol-artifact-1",
  "contractName": "Domains",
  "sourceName": "contracts/Domains.sol",
  "abi": [
    {
      "inputs": [
        {
          "internalType": "string",
          "name": "_tld",
          "type": "string"
        }
      ],
      "stateMutability": "payable",
      "type": "constructor"
    },
    {
      "inputs": [],
      "name": "AlreadyRegistered",
      "type": "error"
    },
    {
      "inputs": [
        {
          "internalType": "string",
          "name": "name",
          "type": "string"
        }
      ],
      "name": "InvalidName",
      "type": "error"
    },
    {
      "inputs": [],
      "name": "Unauthorized",
      "type": "error"
    },
    {
      "anonymous": false,
      "inputs": [
        {
          "indexed": true,
          "internalType": "address",
          "name": "owner",
          "type": "address"
        },
        {
          "indexed": true,
          "internalType": "address",
          "name": "approved",
          "type": "address"
        },
        {
          "indexed": true,
          "internalType": "uint256",
          "name": "tokenId",
          "type": "uint256"
        }
      ],
      "name": "Approval",
      "type": "event"
    },
    {
      "anonymous": false,
      "inputs": [
        {
          "indexed": true,
          "internalType": "address",
          "name": "owner",
          "type": "address"
        },
        {
          "indexed": true,
          "internalType": "address",
          "name": "operator",
          "type": "address"
        },
        {
          "indexed": false,
          "internalType": "bool",
          "name": "approved",
          "type": "bool"
        }
      ],
      "name": "ApprovalForAll",
      "type": "event"
    },
    {
      "anonymous": false,
      "inputs": [
        {
          "indexed": true,
          "internalType": "address",
          "name": "from",
          "type": "address"
        },
        {
          "indexed": true,
          "internalType": "address",
          "name": "to",
          "type": "address"
        },
        {
          "indexed": true,
          "internalType": "uint256",
          "name": "tokenId",
          "type": "uint256"
        }
      ],
      "name": "Transfer",
      "type": "event"
    },
    {
      "inputs": [
        {
          "internalType": "address",
          "name": "to",
          "type": "address"
        },
        {
          "internalType": "uint256",
          "name": "tokenId",
          "type": "uint256"
        }
      ],
      "name": "approve",
      "outputs": [],
      "stateMutability": "nonpayable",
      "type": "function"
    },
    {
      "inputs": [
        {
          "internalType": "address",
          "name": "owner",
          "type": "address"
        }
      ],
      "name": "balanceOf",
      "outputs": [
        {
          "internalType": "uint256",
          "name": "",
          "type": "uint256"
        }
      ],
      "stateMutability": "view",
      "type": "function"
    },
    {
      "inputs": [
        {
          "internalType": "string",
          "name": "",
          "type": "string"
        }
      ],
      "name": "domains",
      "outputs": [
        {
          "internalType": "address",
          "name": "",
          "type": "address"
        }
      ],
      "stateMutability": "view",
      "type": "function"
    },
    {
      "inputs": [
        {
          "internalType": "string",
          "name": "name",
          "type": "string"
        }
      ],
      "name": "getAddress",
      "outputs": [
        {
          "internalType": "address",
          "name": "",
          "type": "address"
        }
      ],
      "stateMutability": "view",
      "type": "function"
    },
    {
      "inputs": [],
      "name": "getAllNames",
      "outputs": [
        {
          "internalType": "string[]",
          "name": "",
          "type": "string[]"
        }
      ],
      "stateMutability": "view",
      "type": "function"
    },
    {
      "inputs": [
        {
          "internalType": "uint256",
          "name": "tokenId",
          "type": "uint256"
        }
      ],
      "name": "getApproved",
      "outputs": [
        {
          "internalType": "address",
          "name": "",
          "type": "address"
        }
      ],
      "stateMutability": "view",
      "type": "function"
    },
    {
      "inputs": [
        {
          "internalType": "string",
          "name": "name",
          "type": "string"
        }
      ],
      "name": "getRecord",
      "outputs": [
        {
          "internalType": "string",
          "name": "",
          "type": "string"
        }
      ],
      "stateMutability": "view",
      "type": "function"
    },
    {
      "inputs": [
        {
          "internalType": "address",
          "name": "owner",
          "type": "address"
        },
        {
          "internalType": "address",
          "name": "operator",
          "type": "address"
        }
      ],
      "name": "isApprovedForAll",
      "outputs": [
        {
          "internalType": "bool",
          "name": "",
          "type": "bool"
        }
      ],
      "stateMutability": "view",
      "type": "function"
    },
    {
      "inputs": [],
      "name": "isOwner",
      "outputs": [
        {
          "internalType": "bool",
          "name": "",
          "type": "bool"
        }
      ],
      "stateMutability": "view",
      "type": "function"
    },
    {
      "inputs": [],
      "name": "name",
      "outputs": [
        {
          "internalType": "string",
          "name": "",
          "type": "string"
        }
      ],
      "stateMutability": "view",
      "type": "function"
    },
    {
      "inputs": [
        {
          "internalType": "uint256",
          "name": "",
          "type": "uint256"
        }
      ],
      "name": "names",
      "outputs": [
        {
          "internalType": "string",
          "name": "",
          "type": "string"
        }
      ],
      "stateMutability": "view",
      "type": "function"
    },
    {
      "inputs": [],
      "name": "owner",
      "outputs": [
        {
          "internalType": "address payable",
          "name": "",
          "type": "address"
        }
      ],
      "stateMutability": "view",
      "type": "function"
    },
    {
      "inputs": [
        {
          "internalType": "uint256",
          "name": "tokenId",
          "type": "uint256"
        }
      ],
      "name": "ownerOf",
      "outputs": [
        {
          "internalType": "address",
          "name": "",
          "type": "address"
        }
      ],
      "stateMutability": "view",
      "type": "function"
    },
    {
      "inputs": [
        {
          "internalType": "string",
          "name": "name",
          "type": "string"
        }
      ],
      "name": "price",
      "outputs": [
        {
          "internalType": "uint256",
          "name": "",
          "type": "uint256"
        }
      ],
      "stateMutability": "pure",
      "type": "function"
    },
    {
      "inputs": [
        {
          "internalType": "string",
          "name": "",
          "type": "string"
        }
      ],
      "name": "records",
      "outputs": [
        {
          "internalType": "string",
          "name": "",
          "type": "string"
        }
      ],
      "stateMutability": "view",
      "type": "function"
    },
    {
      "inputs": [
        {
          "internalType": "string",
          "name": "name",
          "type": "string"
        }
      ],
      "name": "register",
      "outputs": [],
      "stateMutability": "payable",
      "type": "function"
    },
    {
      "inputs": [
        {
          "internalType": "address",
          "name": "from",
          "type": "address"
        },
        {
          "internalType": "address",
          "name": "to",
          "type": "address"
        },
        {
          "internalType": "uint256",
          "name": "tokenId",
          "type": "uint256"
        }
      ],
      "name": "safeTransferFrom",
      "outputs": [],
      "stateMutability": "nonpayable",
      "type": "function"
    },
    {
      "inputs": [
        {
          "internalType": "address",
          "name": "from",
          "type": "address"
        },
        {
          "internalType": "address",
          "name": "to",
          "type": "address"
        },
        {
          "internalType": "uint256",
          "name": "tokenId",
          "type": "uint256"
        },
        {
          "internalType": "bytes",
          "name": "data",
          "type": "bytes"
        }
      ],
      "name": "safeTransferFrom",
      "outputs": [],
      "stateMutability": "nonpayable",
      "type": "function"
    },
    {
      "inputs": [
        {
          "internalType": "address",
          "name": "operator",
          "type": "address"
        },
        {
          "internalType": "bool",
          "name": "approved",
          "type": "bool"
        }
      ],
      "name": "setApprovalForAll",
      "outputs": [],
      "stateMutability": "nonpayable",
      "type": "function"
    },
    {
      "inputs": [
        {
          "internalType": "string",
          "name": "name",
          "type": "string"
        },
        {
          "internalType": "string",
          "name": "record",
          "type": "string"
        }
      ],
      "name": "setRecord",
      "outputs": [],
      "stateMutability": "nonpayable",
      "type": "function"
    },
    {
      "inputs": [
        {
          "internalType": "bytes4",
          "name": "interfaceId",
          "type": "bytes4"
        }
      ],
      "name": "supportsInterface",
      "outputs": [
        {
          "internalType": "bool",
          "name": "",
          "type": "bool"
        }
      ],
      "stateMutability": "view",
      "type": "function"
    },
    {
      "inputs": [],
      "name": "symbol",
      "outputs": [
        {
          "internalType": "string",
          "name": "",
          "type": "string"
        }
      ],
      "stateMutability": "view",
      "type": "function"
    },
    {
      "inputs": [],
      "name": "tld",
      "outputs": [
        {
          "internalType": "string",
          "name": "",
          "type": "string"
        }
      ],
      "stateMutability": "view",
      "type": "function"
    },
    {
      "inputs": [
        {
          "internalType": "uint256",
          "name": "tokenId",
          "type": "uint256"
        }
      ],
      "name": "tokenURI",
      "outputs": [
        {
          "internalType": "string",
          "name": "",
          "type": "string"
        }
      ],
      "stateMutability": "view",
      "type": "function"
    },
    {
      "inputs": [
        {
          "internalType": "address",
          "name": "from",
          "type": "address"
        },
        {
          "internalType": "address",
          "name": "to",
          "type": "address"
        },
        {
          "internalType": "uint256",
          "name": "tokenId",
          "type": "uint256"
        }
      ],
      "name": "transferFrom",
      "outputs": [],
      "stateMutability": "nonpayable",
      "type": "function"
    },
    {
      "inputs": [
        {
          "internalType": "string",
          "name": "name",
          "type": "string"
        }
      ],
      "name": "valid",
      "outputs": [
        {
          "internalType": "bool",
          "name": "",
          "type": "bool"
        }
      ],
      "stateMutability": "pure",
      "type": "function"
    },
    {
      "inputs": [],
      "name": "withdraw",
      "outputs": [],
      "stateMutability": "nonpayable",
      "type": "function"
    }
  ],
  "bytecode": "0x6080604052604051806108a0016040528061086b81526020016200573e61086b9139600a90816200003191906200051f565b506040518060400160405280600d81526020017f3c2f746578743e3c2f7376673e00000000000000000000000000000000000000815250600b90816200007891906200051f565b5060405162005fa938038062005fa983398181016040528101906200009e91906200076a565b6040518060400160405280601281526020017f4e61696a61204e616d65205365727669636500000000000000000000000000008152506040518060400160405280600381526020017f4e4e53000000000000000000000000000000000000000000000000000000000081525081600090816200011b91906200051f565b5080600190816200012d91906200051f565b50505033600960006101000a81548173ffffffffffffffffffffffffffffffffffffffff021916908373ffffffffffffffffffffffffffffffffffffffff16021790555080600890816200018291906200051f565b50620001cf6040518060400160405280601881526020017f2573206e616d652073657276696365206465706c6f796564000000000000000081525082620001d660201b62001c0c1760201c565b5062000848565b620002788282604051602401620001ef9291906200080d565b6040516020818303038152906040527f4b5c4277000000000000000000000000000000000000000000000000000000007bffffffffffffffffffffffffffffffffffffffffffffffffffffffff19166020820180517bffffffffffffffffffffffffffffffffffffffffffffffffffffffff83818316178352505050506200027c60201b60201c565b5050565b60008151905060006a636f6e736f6c652e6c6f679050602083016000808483855afa5050505050565b600081519050919050565b7f4e487b7100000000000000000000000000000000000000000000000000000000600052604160045260246000fd5b7f4e487b7100000000000000000000000000000000000000000000000000000000600052602260045260246000fd5b600060028204905060018216806200032757607f821691505b6020821081036200033d576200033c620002df565b5b50919050565b60008190508160005260206000209050919050565b60006020601f8301049050919050565b600082821b905092915050565b600060088302620003a77fffffffffffffffffffffffffffffffffffffffffffffffffffffffffffffffff8262000368565b620003b3868362000368565b95508019841693508086168417925050509392505050565b6000819050919050565b6000819050919050565b600062000400620003fa620003f484620003cb565b620003d5565b620003cb565b9050919050565b6000819050919050565b6200041c83620003df565b620004346200042b8262000407565b84845462000375565b825550505050565b600090565b6200044b6200043c565b6200045881848462000411565b505050565b5b8181101562000480576200047460008262000441565b6001810190506200045e565b5050565b601f821115620004cf57620004998162000343565b620004a48462000358565b81016020851015620004b4578190505b620004cc620004c38562000358565b8301826200045d565b50505b505050565b600082821c905092915050565b6000620004f460001984600802620004d4565b1980831691505092915050565b60006200050f8383620004e1565b9150826002028217905092915050565b6200052a82620002a5565b67ffffffffffffffff811115620005465762000545620002b0565b5b6200055282546200030e565b6200055f82828562000484565b600060209050601f83116001811462000597576000841562000582578287015190505b6200058e858262000501565b865550620005fe565b601f198416620005a78662000343565b60005b82811015620005d157848901518255600182019150602085019450602081019050620005aa565b86831015620005f15784890151620005ed601f891682620004e1565b8355505b6001600288020188555050505b505050505050565b6000604051905090565b600080fd5b600080fd5b600080fd5b600080fd5b6000601f19601f8301169050919050565b620006408262000624565b810181811067ffffffffffffffff82111715620006625762000661620002b0565b5b80604052505050565b60006200067762000606565b905062000685828262000635565b919050565b600067ffffffffffffffff821115620006a857620006a7620002b0565b5b620006b38262000624565b9050602081019050919050565b60005b83811015620006e0578082015181840152602081019050620006c3565b60008484015250505050565b600062000703620006fd846200068a565b6200066b565b9050828152602081018484840111156200072257620007216200061f565b5b6200072f848285620006c0565b509392505050565b600082601f8301126200074f576200074e6200061a565b5b815162000761848260208601620006ec565b91505092915050565b60006020828403121562000783576200078262000610565b5b600082015167ffffffffffffffff811115620007a457620007a362000615565b5b620007b28482850162000737565b91505092915050565b600082825260208201905092915050565b6000620007d982620002a5565b620007e58185620007bb565b9350620007f7818560208601620006c0565b620008028162000624565b840191505092915050565b60006040820190508181036000830152620008298185620007cc565b905081810360208301526200083f8184620007cc565b90509392505050565b614ee680620008586000396000f3fe60806040526004361061019c5760003560e01c806370a08231116100ec578063bf40fac11161008a578063e985e9c511610064578063e985e9c514610624578063f2c298be14610661578063fb825e5f1461067d578063fe2c6198146106a85761019c565b8063bf40fac114610581578063c1880a98146105be578063c87b56dd146105e75761019c565b806395d89b41116100c657806395d89b41146104c75780639791c097146104f2578063a22cb4651461052f578063b88d4fde146105585761019c565b806370a08231146104345780638da5cb5b146104715780638f32d59b1461049c5761019c565b8063264492351161015957806342842e0e1161013357806342842e0e146103545780634622ab031461037d578063541e771d146103ba5780636352211e146103f75761019c565b806326449235146102d55780632d551432146103125780633ccfd60b1461033d5761019c565b806301ffc9a7146101a157806306fdde03146101de578063081812fc14610209578063095ea7b31461024657806311dd88451461026f57806323b872dd146102ac575b600080fd5b3480156101ad57600080fd5b506101c860048036038101906101c39190613216565b6106e5565b6040516101d5919061325e565b60405180910390f35b3480156101ea57600080fd5b506101f36107c7565b6040516102009190613309565b60405180910390f35b34801561021557600080fd5b50610230600480360381019061022b9190613361565b610859565b60405161023d91906133cf565b60405180910390f35b34801561025257600080fd5b5061026d60048036038101906102689190613416565b61089f565b005b34801561027b57600080fd5b50610296600480360381019061029191906134bb565b6109b6565b6040516102a39190613309565b60405180910390f35b3480156102b857600080fd5b506102d360048036038101906102ce9190613508565b610a69565b005b3480156102e157600080fd5b506102fc60048036038101906102f7919061368b565b610ac9565b60405161030991906133cf565b60405180910390f35b34801561031e57600080fd5b50610327610b12565b6040516103349190613309565b60405180910390f35b34801561034957600080fd5b50610352610ba0565b005b34801561036057600080fd5b5061037b60048036038101906103769190613508565b610c66565b005b34801561038957600080fd5b506103a4600480360381019061039f9190613361565b610c86565b6040516103b19190613309565b60405180910390f35b3480156103c657600080fd5b506103e160048036038101906103dc919061368b565b610d26565b6040516103ee9190613309565b60405180910390f35b34801561040357600080fd5b5061041e60048036038101906104199190613361565b610ddc565b60405161042b91906133cf565b60405180910390f35b34801561044057600080fd5b5061045b600480360381019061045691906136d4565b610e62565b6040516104689190613710565b60405180910390f35b34801561047d57600080fd5b50610486610f19565b604051610493919061374c565b60405180910390f35b3480156104a857600080fd5b506104b1610f3f565b6040516104be919061325e565b60405180910390f35b3480156104d357600080fd5b506104dc610f97565b6040516104e99190613309565b60405180910390f35b3480156104fe57600080fd5b50610519600480360381019061051491906134bb565b611029565b604051610526919061325e565b60405180910390f35b34801561053b57600080fd5b5061055660048036038101906105519190613793565b6110dd565b005b34801561056457600080fd5b5061057f600480360381019061057a9190613874565b6110f3565b005b34801561058d57600080fd5b506105a860048036038101906105a391906134bb565b611155565b6040516105b591906133cf565b60405180910390f35b3480156105ca57600080fd5b506105e560048036038101906105e091906138f7565b6111a0565b005b3480156105f357600080fd5b5061060e60048036038101906106099190613361565b6112f3565b60405161061b9190613309565b60405180910390f35b34801561063057600080fd5b5061064b60048036038101906106469190613978565b611405565b604051610658919061325e565b60405180910390f35b61067b600480360381019061067691906134bb565b611499565b005b34801561068957600080fd5b50610692611990565b60405161069f9190613ac4565b60405180910390f35b3480156106b457600080fd5b506106cf60048036038101906106ca91906134bb565b611b6e565b6040516106dc9190613710565b60405180910390f35b60007f80ac58cd000000000000000000000000000000000000000000000000000000007bffffffffffffffffffffffffffffffffffffffffffffffffffffffff1916827bffffffffffffffffffffffffffffffffffffffffffffffffffffffff191614806107b057507f5b5e139f000000000000000000000000000000000000000000000000000000007bffffffffffffffffffffffffffffffffffffffffffffffffffffffff1916827bffffffffffffffffffffffffffffffffffffffffffffffffffffffff1916145b806107c057506107bf82611ca8565b5b9050919050565b6060600080546107d690613b15565b80601f016020809104026020016040519081016040528092919081815260200182805461080290613b15565b801561084f5780601f106108245761010080835404028352916020019161084f565b820191906000526020600020905b81548152906001019060200180831161083257829003601f168201915b5050505050905090565b600061086482611d12565b6004600083815260200190815260200160002060009054906101000a900473ffffffffffffffffffffffffffffffffffffffff169050919050565b60006108aa82610ddc565b90508073ffffffffffffffffffffffffffffffffffffffff168373ffffffffffffffffffffffffffffffffffffffff160361091a576040517f08c379a000000000000000000000000000000000000000000000000000000000815260040161091190613bb8565b60405180910390fd5b8073ffffffffffffffffffffffffffffffffffffffff16610939611d5d565b73ffffffffffffffffffffffffffffffffffffffff161480610968575061096781610962611d5d565b611405565b5b6109a7576040517f08c379a000000000000000000000000000000000000000000000000000000000815260040161099e90613c4a565b60405180910390fd5b6109b18383611d65565b505050565b6060600d83836040516109ca929190613c9a565b908152602001604051809103902080546109e390613b15565b80601f0160208091040260200160405190810160405280929190818152602001828054610a0f90613b15565b8015610a5c5780601f10610a3157610100808354040283529160200191610a5c565b820191906000526020600020905b815481529060010190602001808311610a3f57829003601f168201915b5050505050905092915050565b610a7a610a74611d5d565b82611e1e565b610ab9576040517f08c379a0000000000000000000000000000000000000000000000000000000008152600401610ab090613d25565b60405180910390fd5b610ac4838383611eb3565b505050565b600c818051602081018201805184825260208301602085012081835280955050505050506000915054906101000a900473ffffffffffffffffffffffffffffffffffffffff1681565b60088054610b1f90613b15565b80601f0160208091040260200160405190810160405280929190818152602001828054610b4b90613b15565b8015610b985780601f10610b6d57610100808354040283529160200191610b98565b820191906000526020600020905b815481529060010190602001808311610b7b57829003601f168201915b505050505081565b610ba8610f3f565b610bb157600080fd5b600047905060003373ffffffffffffffffffffffffffffffffffffffff1682604051610bdc90613d76565b60006040518083038185875af1925050503d8060008114610c19576040519150601f19603f3d011682016040523d82523d6000602084013e610c1e565b606091505b5050905080610c62576040517f08c379a0000000000000000000000000000000000000000000000000000000008152600401610c5990613dd7565b60405180910390fd5b5050565b610c81838383604051806020016040528060008152506110f3565b505050565b600e6020528060005260406000206000915090508054610ca590613b15565b80601f0160208091040260200160405190810160405280929190818152602001828054610cd190613b15565b8015610d1e5780601f10610cf357610100808354040283529160200191610d1e565b820191906000526020600020905b815481529060010190602001808311610d0157829003601f168201915b505050505081565b600d818051602081018201805184825260208301602085012081835280955050505050506000915090508054610d5b90613b15565b80601f0160208091040260200160405190810160405280929190818152602001828054610d8790613b15565b8015610dd45780601f10610da957610100808354040283529160200191610dd4565b820191906000526020600020905b815481529060010190602001808311610db757829003601f168201915b505050505081565b600080610de8836121ac565b9050600073ffffffffffffffffffffffffffffffffffffffff168173ffffffffffffffffffffffffffffffffffffffff1603610e59576040517f08c379a0000000000000000000000000000000000000000000000000000000008152600401610e5090613e43565b60405180910390fd5b80915050919050565b60008073ffffffffffffffffffffffffffffffffffffffff168273ffffffffffffffffffffffffffffffffffffffff1603610ed2576040517f08c379a0000000000000000000000000000000000000000000000000000000008152600401610ec990613ed5565b60405180910390fd5b600360008373ffffffffffffffffffffffffffffffffffffffff1673ffffffffffffffffffffffffffffffffffffffff168152602001908152602001600020549050919050565b600960009054906101000a900473ffffffffffffffffffffffffffffffffffffffff1681565b6000600960009054906101000a900473ffffffffffffffffffffffffffffffffffffffff1673ffffffffffffffffffffffffffffffffffffffff163373ffffffffffffffffffffffffffffffffffffffff1614905090565b606060018054610fa690613b15565b80601f0160208091040260200160405190810160405280929190818152602001828054610fd290613b15565b801561101f5780601f10610ff45761010080835404028352916020019161101f565b820191906000526020600020905b81548152906001019060200180831161100257829003601f168201915b5050505050905090565b6000600361107a84848080601f016020809104026020016040519081016040528093929190818152602001838380828437600081840152601f19601f820116905080830192505050505050506121e9565b101580156110d55750600a6110d284848080601f016020809104026020016040519081016040528093929190818152602001838380828437600081840152601f19601f820116905080830192505050505050506121e9565b11155b905092915050565b6110ef6110e8611d5d565b838361239e565b5050565b6111046110fe611d5d565b83611e1e565b611143576040517f08c379a000000000000000000000000000000000000000000000000000000000815260040161113a90613d25565b60405180910390fd5b61114f8484848461250a565b50505050565b6000600c8383604051611169929190613c9a565b908152602001604051809103902060009054906101000a900473ffffffffffffffffffffffffffffffffffffffff16905092915050565b3373ffffffffffffffffffffffffffffffffffffffff16600c85856040516111c9929190613c9a565b908152602001604051809103902060009054906101000a900473ffffffffffffffffffffffffffffffffffffffff1673ffffffffffffffffffffffffffffffffffffffff161461121857600080fd5b600c848460405161122a929190613c9a565b908152602001604051809103902060009054906101000a900473ffffffffffffffffffffffffffffffffffffffff1673ffffffffffffffffffffffffffffffffffffffff163373ffffffffffffffffffffffffffffffffffffffff16146112bd576040517f82b4290000000000000000000000000000000000000000000000000000000000815260040160405180910390fd5b8181600d86866040516112d1929190613c9a565b908152602001604051809103902091826112ec9291906140ac565b5050505050565b60606112fe82611d12565b600060066000848152602001908152602001600020805461131e90613b15565b80601f016020809104026020016040519081016040528092919081815260200182805461134a90613b15565b80156113975780601f1061136c57610100808354040283529160200191611397565b820191906000526020600020905b81548152906001019060200180831161137a57829003601f168201915b5050505050905060006113a8612566565b905060008151036113bd578192505050611400565b6000825111156113f25780826040516020016113da9291906141ad565b60405160208183030381529060405292505050611400565b6113fb8461257d565b925050505b919050565b6000600560008473ffffffffffffffffffffffffffffffffffffffff1673ffffffffffffffffffffffffffffffffffffffff16815260200190815260200160002060008373ffffffffffffffffffffffffffffffffffffffff1673ffffffffffffffffffffffffffffffffffffffff16815260200190815260200160002060009054906101000a900460ff16905092915050565b600073ffffffffffffffffffffffffffffffffffffffff16600c83836040516114c3929190613c9a565b908152602001604051809103902060009054906101000a900473ffffffffffffffffffffffffffffffffffffffff1673ffffffffffffffffffffffffffffffffffffffff161461151257600080fd5b600061151e8383611b6e565b905080341015611563576040517f08c379a000000000000000000000000000000000000000000000000000000000815260040161155a9061421d565b60405180910390fd5b600073ffffffffffffffffffffffffffffffffffffffff16600c848460405161158d929190613c9a565b908152602001604051809103902060009054906101000a900473ffffffffffffffffffffffffffffffffffffffff1673ffffffffffffffffffffffffffffffffffffffff1614611609576040517f3a81d6fc00000000000000000000000000000000000000000000000000000000815260040160405180910390fd5b6116138383611029565b6116565782826040517f7f19f48d00000000000000000000000000000000000000000000000000000000815260040161164d92919061426a565b60405180910390fd5b60008383600860405160200161166e9392919061435d565b60405160208183030381529060405290506000600a82600b6040516020016116989392919061438e565b604051602081830303815290604052905060006116b560076125e5565b9050600061170687878080601f016020809104026020016040519081016040528093929190818152602001838380828437600081840152601f19601f820116905080830192505050505050506121e9565b90506000611713826125f3565b9050611807604051806060016040528060318152602001614e076031913989898080601f016020809104026020016040519081016040528093929190818152602001838380828437600081840152601f19601f820116905080830192505050505050506008805461178390613b15565b80601f01602080910402602001604051908101604052809291908181526020018280546117af90613b15565b80156117fc5780601f106117d1576101008083540402835291602001916117fc565b820191906000526020600020905b8154815290600101906020018083116117df57829003601f168201915b5050505050866126c1565b600061183d8661181687612763565b846040516020016118299392919061453b565b604051602081830303815290604052612763565b905060008160405160200161185291906145e4565b6040516020818303038152906040529050611884604051806060016040528060398152602001614dce603991396128c6565b6118c36040518060400160405280600e81526020017f46696e616c20746f6b656e55524900000000000000000000000000000000000081525082611c0c565b6118e4604051806060016040528060398152602001614e38603991396128c6565b6118ee338661295f565b6118f8858261297d565b33600c8b8b60405161190b929190613c9a565b908152602001604051809103902060006101000a81548173ffffffffffffffffffffffffffffffffffffffff021916908373ffffffffffffffffffffffffffffffffffffffff1602179055508989600e600088815260200190815260200160002091826119799291906140ac565b5061198460076129ea565b50505050505050505050565b60606119d06040518060400160405280601f81526020017f47657474696e6720616c6c206e616d65732066726f6d20636f6e7472616374008152506128c6565b60006119dc60076125e5565b67ffffffffffffffff8111156119f5576119f4613560565b5b604051908082528060200260200182016040528015611a2857816020015b6060815260200190600190039081611a135790505b50905060005b611a3860076125e5565b811015611b6657600e60008281526020019081526020016000208054611a5d90613b15565b80601f0160208091040260200160405190810160405280929190818152602001828054611a8990613b15565b8015611ad65780601f10611aab57610100808354040283529160200191611ad6565b820191906000526020600020905b815481529060010190602001808311611ab957829003601f168201915b5050505050828281518110611aee57611aed614606565b5b6020026020010181905250611b536040518060400160405280601781526020017f4e616d6520666f7220746f6b656e20256420697320257300000000000000000081525082848481518110611b4657611b45614606565b5b6020026020010151612a00565b8080611b5e90614664565b915050611a2e565b508091505090565b600080611bbe84848080601f016020809104026020016040519081016040528093929190818152602001838380828437600081840152601f19601f820116905080830192505050505050506121e9565b905060008111611bcd57600080fd5b60038103611be457651b48eb57e000915050611c06565b60048103611bfb576512309ce54000915050611c06565b6509184e72a0009150505b92915050565b611ca48282604051602401611c229291906146ac565b6040516020818303038152906040527f4b5c4277000000000000000000000000000000000000000000000000000000007bffffffffffffffffffffffffffffffffffffffffffffffffffffffff19166020820180517bffffffffffffffffffffffffffffffffffffffffffffffffffffffff8381831617835250505050612a9f565b5050565b60007f01ffc9a7000000000000000000000000000000000000000000000000000000007bffffffffffffffffffffffffffffffffffffffffffffffffffffffff1916827bffffffffffffffffffffffffffffffffffffffffffffffffffffffff1916149050919050565b611d1b81612ac8565b611d5a576040517f08c379a0000000000000000000000000000000000000000000000000000000008152600401611d5190613e43565b60405180910390fd5b50565b600033905090565b816004600083815260200190815260200160002060006101000a81548173ffffffffffffffffffffffffffffffffffffffff021916908373ffffffffffffffffffffffffffffffffffffffff160217905550808273ffffffffffffffffffffffffffffffffffffffff16611dd883610ddc565b73ffffffffffffffffffffffffffffffffffffffff167f8c5be1e5ebec7d5bd14f71427d1e84f3dd0314c0f7b2291e5b200ac8c7c3b92560405160405180910390a45050565b600080611e2a83610ddc565b90508073ffffffffffffffffffffffffffffffffffffffff168473ffffffffffffffffffffffffffffffffffffffff161480611e6c5750611e6b8185611405565b5b80611eaa57508373ffffffffffffffffffffffffffffffffffffffff16611e9284610859565b73ffffffffffffffffffffffffffffffffffffffff16145b91505092915050565b8273ffffffffffffffffffffffffffffffffffffffff16611ed382610ddc565b73ffffffffffffffffffffffffffffffffffffffff1614611f29576040517f08c379a0000000000000000000000000000000000000000000000000000000008152600401611f2090614755565b60405180910390fd5b600073ffffffffffffffffffffffffffffffffffffffff168273ffffffffffffffffffffffffffffffffffffffff1603611f98576040517f08c379a0000000000000000000000000000000000000000000000000000000008152600401611f8f906147e7565b60405180910390fd5b611fa58383836001612b09565b8273ffffffffffffffffffffffffffffffffffffffff16611fc582610ddc565b73ffffffffffffffffffffffffffffffffffffffff161461201b576040517f08c379a000000000000000000000000000000000000000000000000000000000815260040161201290614755565b60405180910390fd5b6004600082815260200190815260200160002060006101000a81549073ffffffffffffffffffffffffffffffffffffffff02191690556001600360008573ffffffffffffffffffffffffffffffffffffffff1673ffffffffffffffffffffffffffffffffffffffff168152602001908152602001600020600082825403925050819055506001600360008473ffffffffffffffffffffffffffffffffffffffff1673ffffffffffffffffffffffffffffffffffffffff16815260200190815260200160002060008282540192505081905550816002600083815260200190815260200160002060006101000a81548173ffffffffffffffffffffffffffffffffffffffff021916908373ffffffffffffffffffffffffffffffffffffffff160217905550808273ffffffffffffffffffffffffffffffffffffffff168473ffffffffffffffffffffffffffffffffffffffff167fddf252ad1be2c89b69c2b068fc378daa952ba7f163c4a11628f55a4df523b3ef60405160405180910390a46121a78383836001612c2f565b505050565b60006002600083815260200190815260200160002060009054906101000a900473ffffffffffffffffffffffffffffffffffffffff169050919050565b60008060008084519050600092505b8082101561239357600085838151811061221557612214614606565b5b602001015160f81c60f81b9050608060f81b817effffffffffffffffffffffffffffffffffffffffffffffffffffffffffffff191610156122645760018361225d9190614807565b925061237f565b60e060f81b817effffffffffffffffffffffffffffffffffffffffffffffffffffffffffffff191610156122a65760028361229f9190614807565b925061237e565b60f060f81b817effffffffffffffffffffffffffffffffffffffffffffffffffffffffffffff191610156122e8576003836122e19190614807565b925061237d565b60f8801b817effffffffffffffffffffffffffffffffffffffffffffffffffffffffffffff19161015612329576004836123229190614807565b925061237c565b60fc60f81b817effffffffffffffffffffffffffffffffffffffffffffffffffffffffffffff1916101561236b576005836123649190614807565b925061237b565b6006836123789190614807565b92505b5b5b5b5b50828061238b90614664565b9350506121f8565b829350505050919050565b8173ffffffffffffffffffffffffffffffffffffffff168373ffffffffffffffffffffffffffffffffffffffff160361240c576040517f08c379a000000000000000000000000000000000000000000000000000000000815260040161240390614887565b60405180910390fd5b80600560008573ffffffffffffffffffffffffffffffffffffffff1673ffffffffffffffffffffffffffffffffffffffff16815260200190815260200160002060008473ffffffffffffffffffffffffffffffffffffffff1673ffffffffffffffffffffffffffffffffffffffff16815260200190815260200160002060006101000a81548160ff0219169083151502179055508173ffffffffffffffffffffffffffffffffffffffff168373ffffffffffffffffffffffffffffffffffffffff167f17307eab39ab6107e8899845ad3d59bd9653f200f220920489ca2b5937696c31836040516124fd919061325e565b60405180910390a3505050565b612515848484611eb3565b61252184848484612c35565b612560576040517f08c379a000000000000000000000000000000000000000000000000000000000815260040161255790614919565b60405180910390fd5b50505050565b606060405180602001604052806000815250905090565b606061258882611d12565b6000612592612566565b905060008151116125b257604051806020016040528060008152506125dd565b806125bc846125f3565b6040516020016125cd9291906141ad565b6040516020818303038152906040525b915050919050565b600081600001549050919050565b60606000600161260284612dbc565b01905060008167ffffffffffffffff81111561262157612620613560565b5b6040519080825280601f01601f1916602001820160405280156126535781602001600182028036833780820191505090505b509050600082602001820190505b6001156126b6578080600190039150507f3031323334353637383961626364656600000000000000000000000000000000600a86061a8153600a85816126aa576126a9614939565b5b04945060008503612661575b819350505050919050565b61275d848484846040516024016126db9493929190614968565b6040516020818303038152906040527f8eafb02b000000000000000000000000000000000000000000000000000000007bffffffffffffffffffffffffffffffffffffffffffffffffffffffff19166020820180517bffffffffffffffffffffffffffffffffffffffffffffffffffffffff8381831617835250505050612a9f565b50505050565b60606000825103612785576040518060200160405280600081525090506128c1565b6000604051806060016040528060408152602001614e7160409139905060006003600285516127b49190614807565b6127be91906149c2565b60046127ca91906149f3565b67ffffffffffffffff8111156127e3576127e2613560565b5b6040519080825280601f01601f1916602001820160405280156128155781602001600182028036833780820191505090505b509050600182016020820185865187015b80821015612881576003820191508151603f8160121c168501518453600184019350603f81600c1c168501518453600184019350603f8160061c168501518453600184019350603f8116850151845360018401935050612826565b505060038651066001811461289d57600281146128b0576128b8565b603d6001830353603d60028303536128b8565b603d60018303535b50505080925050505b919050565b61295c816040516024016128da9190613309565b6040516020818303038152906040527f41304fac000000000000000000000000000000000000000000000000000000007bffffffffffffffffffffffffffffffffffffffffffffffffffffffff19166020820180517bffffffffffffffffffffffffffffffffffffffffffffffffffffffff8381831617835250505050612a9f565b50565b612979828260405180602001604052806000815250612f0f565b5050565b61298682612ac8565b6129c5576040517f08c379a00000000000000000000000000000000000000000000000000000000081526004016129bc90614aa7565b60405180910390fd5b806006600084815260200190815260200160002090816129e59190614ac7565b505050565b6001816000016000828254019250508190555050565b612a9a838383604051602401612a1893929190614b99565b6040516020818303038152906040527f5970e089000000000000000000000000000000000000000000000000000000007bffffffffffffffffffffffffffffffffffffffffffffffffffffffff19166020820180517bffffffffffffffffffffffffffffffffffffffffffffffffffffffff8381831617835250505050612a9f565b505050565b60008151905060006a636f6e736f6c652e6c6f679050602083016000808483855afa5050505050565b60008073ffffffffffffffffffffffffffffffffffffffff16612aea836121ac565b73ffffffffffffffffffffffffffffffffffffffff1614159050919050565b6001811115612c2957600073ffffffffffffffffffffffffffffffffffffffff168473ffffffffffffffffffffffffffffffffffffffff1614612b9d5780600360008673ffffffffffffffffffffffffffffffffffffffff1673ffffffffffffffffffffffffffffffffffffffff1681526020019081526020016000206000828254612b959190614bde565b925050819055505b600073ffffffffffffffffffffffffffffffffffffffff168373ffffffffffffffffffffffffffffffffffffffff1614612c285780600360008573ffffffffffffffffffffffffffffffffffffffff1673ffffffffffffffffffffffffffffffffffffffff1681526020019081526020016000206000828254612c209190614807565b925050819055505b5b50505050565b50505050565b6000612c568473ffffffffffffffffffffffffffffffffffffffff16612f6a565b15612daf578373ffffffffffffffffffffffffffffffffffffffff1663150b7a02612c7f611d5d565b8786866040518563ffffffff1660e01b8152600401612ca19493929190614c67565b6020604051808303816000875af1925050508015612cdd57506040513d601f19601f82011682018060405250810190612cda9190614cc8565b60015b612d5f573d8060008114612d0d576040519150601f19603f3d011682016040523d82523d6000602084013e612d12565b606091505b506000815103612d57576040517f08c379a0000000000000000000000000000000000000000000000000000000008152600401612d4e90614919565b60405180910390fd5b805181602001fd5b63150b7a0260e01b7bffffffffffffffffffffffffffffffffffffffffffffffffffffffff1916817bffffffffffffffffffffffffffffffffffffffffffffffffffffffff191614915050612db4565b600190505b949350505050565b600080600090507a184f03e93ff9f4daa797ed6e38ed64bf6a1f0100000000000000008310612e1a577a184f03e93ff9f4daa797ed6e38ed64bf6a1f0100000000000000008381612e1057612e0f614939565b5b0492506040810190505b6d04ee2d6d415b85acef81000000008310612e57576d04ee2d6d415b85acef81000000008381612e4d57612e4c614939565b5b0492506020810190505b662386f26fc100008310612e8657662386f26fc100008381612e7c57612e7b614939565b5b0492506010810190505b6305f5e1008310612eaf576305f5e1008381612ea557612ea4614939565b5b0492506008810190505b6127108310612ed4576127108381612eca57612ec9614939565b5b0492506004810190505b60648310612ef75760648381612eed57612eec614939565b5b0492506002810190505b600a8310612f06576001810190505b80915050919050565b612f198383612f8d565b612f266000848484612c35565b612f65576040517f08c379a0000000000000000000000000000000000000000000000000000000008152600401612f5c90614919565b60405180910390fd5b505050565b6000808273ffffffffffffffffffffffffffffffffffffffff163b119050919050565b600073ffffffffffffffffffffffffffffffffffffffff168273ffffffffffffffffffffffffffffffffffffffff1603612ffc576040517f08c379a0000000000000000000000000000000000000000000000000000000008152600401612ff390614d41565b60405180910390fd5b61300581612ac8565b15613045576040517f08c379a000000000000000000000000000000000000000000000000000000000815260040161303c90614dad565b60405180910390fd5b613053600083836001612b09565b61305c81612ac8565b1561309c576040517f08c379a000000000000000000000000000000000000000000000000000000000815260040161309390614dad565b60405180910390fd5b6001600360008473ffffffffffffffffffffffffffffffffffffffff1673ffffffffffffffffffffffffffffffffffffffff16815260200190815260200160002060008282540192505081905550816002600083815260200190815260200160002060006101000a81548173ffffffffffffffffffffffffffffffffffffffff021916908373ffffffffffffffffffffffffffffffffffffffff160217905550808273ffffffffffffffffffffffffffffffffffffffff16600073ffffffffffffffffffffffffffffffffffffffff167fddf252ad1be2c89b69c2b068fc378daa952ba7f163c4a11628f55a4df523b3ef60405160405180910390a46131a6600083836001612c2f565b5050565b6000604051905090565b600080fd5b600080fd5b60007fffffffff0000000000000000000000000000000000000000000000000000000082169050919050565b6131f3816131be565b81146131fe57600080fd5b50565b600081359050613210816131ea565b92915050565b60006020828403121561322c5761322b6131b4565b5b600061323a84828501613201565b91505092915050565b60008115159050919050565b61325881613243565b82525050565b6000602082019050613273600083018461324f565b92915050565b600081519050919050565b600082825260208201905092915050565b60005b838110156132b3578082015181840152602081019050613298565b60008484015250505050565b6000601f19601f8301169050919050565b60006132db82613279565b6132e58185613284565b93506132f5818560208601613295565b6132fe816132bf565b840191505092915050565b6000602082019050818103600083015261332381846132d0565b905092915050565b6000819050919050565b61333e8161332b565b811461334957600080fd5b50565b60008135905061335b81613335565b92915050565b600060208284031215613377576133766131b4565b5b60006133858482850161334c565b91505092915050565b600073ffffffffffffffffffffffffffffffffffffffff82169050919050565b60006133b98261338e565b9050919050565b6133c9816133ae565b82525050565b60006020820190506133e460008301846133c0565b92915050565b6133f3816133ae565b81146133fe57600080fd5b50565b600081359050613410816133ea565b92915050565b6000806040838503121561342d5761342c6131b4565b5b600061343b85828601613401565b925050602061344c8582860161334c565b9150509250929050565b600080fd5b600080fd5b600080fd5b60008083601f84011261347b5761347a613456565b5b8235905067ffffffffffffffff8111156134985761349761345b565b5b6020830191508360018202830111156134b4576134b3613460565b5b9250929050565b600080602083850312156134d2576134d16131b4565b5b600083013567ffffffffffffffff8111156134f0576134ef6131b9565b5b6134fc85828601613465565b92509250509250929050565b600080600060608486031215613521576135206131b4565b5b600061352f86828701613401565b935050602061354086828701613401565b92505060406135518682870161334c565b9150509250925092565b600080fd5b7f4e487b7100000000000000000000000000000000000000000000000000000000600052604160045260246000fd5b613598826132bf565b810181811067ffffffffffffffff821117156135b7576135b6613560565b5b80604052505050565b60006135ca6131aa565b90506135d6828261358f565b919050565b600067ffffffffffffffff8211156135f6576135f5613560565b5b6135ff826132bf565b9050602081019050919050565b82818337600083830152505050565b600061362e613629846135db565b6135c0565b90508281526020810184848401111561364a5761364961355b565b5b61365584828561360c565b509392505050565b600082601f83011261367257613671613456565b5b813561368284826020860161361b565b91505092915050565b6000602082840312156136a1576136a06131b4565b5b600082013567ffffffffffffffff8111156136bf576136be6131b9565b5b6136cb8482850161365d565b91505092915050565b6000602082840312156136ea576136e96131b4565b5b60006136f884828501613401565b91505092915050565b61370a8161332b565b82525050565b60006020820190506137256000830184613701565b92915050565b60006137368261338e565b9050919050565b6137468161372b565b82525050565b6000602082019050613761600083018461373d565b92915050565b61377081613243565b811461377b57600080fd5b50565b60008135905061378d81613767565b92915050565b600080604083850312156137aa576137a96131b4565b5b60006137b885828601613401565b92505060206137c98582860161377e565b9150509250929050565b600067ffffffffffffffff8211156137ee576137ed613560565b5b6137f7826132bf565b9050602081019050919050565b6000613817613812846137d3565b6135c0565b9050828152602081018484840111156138335761383261355b565b5b61383e84828561360c565b509392505050565b600082601f83011261385b5761385a613456565b5b813561386b848260208601613804565b91505092915050565b6000806000806080858703121561388e5761388d6131b4565b5b600061389c87828801613401565b94505060206138ad87828801613401565b93505060406138be8782880161334c565b925050606085013567ffffffffffffffff8111156138df576138de6131b9565b5b6138eb87828801613846565b91505092959194509250565b60008060008060408587031215613911576139106131b4565b5b600085013567ffffffffffffffff81111561392f5761392e6131b9565b5b61393b87828801613465565b9450945050602085013567ffffffffffffffff81111561395e5761395d6131b9565b5b61396a87828801613465565b925092505092959194509250565b6000806040838503121561398f5761398e6131b4565b5b600061399d85828601613401565b92505060206139ae85828601613401565b9150509250929050565b600081519050919050565b600082825260208201905092915050565b6000819050602082019050919050565b600082825260208201905092915050565b6000613a0082613279565b613a0a81856139e4565b9350613a1a818560208601613295565b613a23816132bf565b840191505092915050565b6000613a3a83836139f5565b905092915050565b6000602082019050919050565b6000613a5a826139b8565b613a6481856139c3565b935083602082028501613a76856139d4565b8060005b85811015613ab25784840389528151613a938582613a2e565b9450613a9e83613a42565b925060208a01995050600181019050613a7a565b50829750879550505050505092915050565b60006020820190508181036000830152613ade8184613a4f565b905092915050565b7f4e487b7100000000000000000000000000000000000000000000000000000000600052602260045260246000fd5b60006002820490506001821680613b2d57607f821691505b602082108103613b4057613b3f613ae6565b5b50919050565b7f4552433732313a20617070726f76616c20746f2063757272656e74206f776e6560008201527f7200000000000000000000000000000000000000000000000000000000000000602082015250565b6000613ba2602183613284565b9150613bad82613b46565b604082019050919050565b60006020820190508181036000830152613bd181613b95565b9050919050565b7f4552433732313a20617070726f76652063616c6c6572206973206e6f7420746f60008201527f6b656e206f776e6572206f7220617070726f76656420666f7220616c6c000000602082015250565b6000613c34603d83613284565b9150613c3f82613bd8565b604082019050919050565b60006020820190508181036000830152613c6381613c27565b9050919050565b600081905092915050565b6000613c818385613c6a565b9350613c8e83858461360c565b82840190509392505050565b6000613ca7828486613c75565b91508190509392505050565b7f4552433732313a2063616c6c6572206973206e6f7420746f6b656e206f776e6560008201527f72206f7220617070726f76656400000000000000000000000000000000000000602082015250565b6000613d0f602d83613284565b9150613d1a82613cb3565b604082019050919050565b60006020820190508181036000830152613d3e81613d02565b9050919050565b600081905092915050565b50565b6000613d60600083613d45565b9150613d6b82613d50565b600082019050919050565b6000613d8182613d53565b9150819050919050565b7f4661696c656420746f207769746864726177204d617469630000000000000000600082015250565b6000613dc1601883613284565b9150613dcc82613d8b565b602082019050919050565b60006020820190508181036000830152613df081613db4565b9050919050565b7f4552433732313a20696e76616c696420746f6b656e2049440000000000000000600082015250565b6000613e2d601883613284565b9150613e3882613df7565b602082019050919050565b60006020820190508181036000830152613e5c81613e20565b9050919050565b7f4552433732313a2061646472657373207a65726f206973206e6f74206120766160008201527f6c6964206f776e65720000000000000000000000000000000000000000000000602082015250565b6000613ebf602983613284565b9150613eca82613e63565b604082019050919050565b60006020820190508181036000830152613eee81613eb2565b9050919050565b600082905092915050565b60008190508160005260206000209050919050565b60006020601f8301049050919050565b600082821b905092915050565b600060088302613f627fffffffffffffffffffffffffffffffffffffffffffffffffffffffffffffffff82613f25565b613f6c8683613f25565b95508019841693508086168417925050509392505050565b6000819050919050565b6000613fa9613fa4613f9f8461332b565b613f84565b61332b565b9050919050565b6000819050919050565b613fc383613f8e565b613fd7613fcf82613fb0565b848454613f32565b825550505050565b600090565b613fec613fdf565b613ff7818484613fba565b505050565b5b8181101561401b57614010600082613fe4565b600181019050613ffd565b5050565b601f8211156140605761403181613f00565b61403a84613f15565b81016020851015614049578190505b61405d61405585613f15565b830182613ffc565b50505b505050565b600082821c905092915050565b600061408360001984600802614065565b1980831691505092915050565b600061409c8383614072565b9150826002028217905092915050565b6140b68383613ef5565b67ffffffffffffffff8111156140cf576140ce613560565b5b6140d98254613b15565b6140e482828561401f565b6000601f8311600181146141135760008415614101578287013590505b61410b8582614090565b865550614173565b601f19841661412186613f00565b60005b8281101561414957848901358255600182019150602085019450602081019050614124565b868310156141665784890135614162601f891682614072565b8355505b6001600288020188555050505b50505050505050565b600061418782613279565b6141918185613c6a565b93506141a1818560208601613295565b80840191505092915050565b60006141b9828561417c565b91506141c5828461417c565b91508190509392505050565b7f4e6f7420656e6f756768204d6174696320706169640000000000000000000000600082015250565b6000614207601583613284565b9150614212826141d1565b602082019050919050565b60006020820190508181036000830152614236816141fa565b9050919050565b60006142498385613284565b935061425683858461360c565b61425f836132bf565b840190509392505050565b6000602082019050818103600083015261428581848661423d565b90509392505050565b7f2e00000000000000000000000000000000000000000000000000000000000000600082015250565b60006142c4600183613c6a565b91506142cf8261428e565b600182019050919050565b600081546142e781613b15565b6142f18186613c6a565b9450600182166000811461430c576001811461432157614354565b60ff1983168652811515820286019350614354565b61432a85613f00565b60005b8381101561434c5781548189015260018201915060208101905061432d565b838801955050505b50505092915050565b600061436a828587613c75565b9150614375826142b7565b915061438182846142da565b9150819050949350505050565b600061439a82866142da565b91506143a6828561417c565b91506143b282846142da565b9150819050949350505050565b7f7b226e616d65223a202200000000000000000000000000000000000000000000600082015250565b60006143f5600a83613c6a565b9150614400826143bf565b600a82019050919050565b7f222c20226465736372697074696f6e223a20224120646f6d61696e206f6e207460008201527f6865204e61696a61206e616d652073657276696365222c2022696d616765223a60208201527f2022646174613a696d6167652f7376672b786d6c3b6261736536342c00000000604082015250565b600061448d605c83613c6a565b91506144988261440b565b605c82019050919050565b7f222c226c656e677468223a220000000000000000000000000000000000000000600082015250565b60006144d9600c83613c6a565b91506144e4826144a3565b600c82019050919050565b7f227d000000000000000000000000000000000000000000000000000000000000600082015250565b6000614525600283613c6a565b9150614530826144ef565b600282019050919050565b6000614546826143e8565b9150614552828661417c565b915061455d82614480565b9150614569828561417c565b9150614574826144cc565b9150614580828461417c565b915061458b82614518565b9150819050949350505050565b7f646174613a6170706c69636174696f6e2f6a736f6e3b6261736536342c000000600082015250565b60006145ce601d83613c6a565b91506145d982614598565b601d82019050919050565b60006145ef826145c1565b91506145fb828461417c565b915081905092915050565b7f4e487b7100000000000000000000000000000000000000000000000000000000600052603260045260246000fd5b7f4e487b7100000000000000000000000000000000000000000000000000000000600052601160045260246000fd5b600061466f8261332b565b91507fffffffffffffffffffffffffffffffffffffffffffffffffffffffffffffffff82036146a1576146a0614635565b5b600182019050919050565b600060408201905081810360008301526146c681856132d0565b905081810360208301526146da81846132d0565b90509392505050565b7f4552433732313a207472616e736665722066726f6d20696e636f72726563742060008201527f6f776e6572000000000000000000000000000000000000000000000000000000602082015250565b600061473f602583613284565b915061474a826146e3565b604082019050919050565b6000602082019050818103600083015261476e81614732565b9050919050565b7f4552433732313a207472616e7366657220746f20746865207a65726f2061646460008201527f7265737300000000000000000000000000000000000000000000000000000000602082015250565b60006147d1602483613284565b91506147dc82614775565b604082019050919050565b60006020820190508181036000830152614800816147c4565b9050919050565b60006148128261332b565b915061481d8361332b565b925082820190508082111561483557614834614635565b5b92915050565b7f4552433732313a20617070726f766520746f2063616c6c657200000000000000600082015250565b6000614871601983613284565b915061487c8261483b565b602082019050919050565b600060208201905081810360008301526148a081614864565b9050919050565b7f4552433732313a207472616e7366657220746f206e6f6e20455243373231526560008201527f63656976657220696d706c656d656e7465720000000000000000000000000000602082015250565b6000614903603283613284565b915061490e826148a7565b604082019050919050565b60006020820190508181036000830152614932816148f6565b9050919050565b7f4e487b7100000000000000000000000000000000000000000000000000000000600052601260045260246000fd5b6000608082019050818103600083015261498281876132d0565b9050818103602083015261499681866132d0565b905081810360408301526149aa81856132d0565b90506149b96060830184613701565b95945050505050565b60006149cd8261332b565b91506149d88361332b565b9250826149e8576149e7614939565b5b828204905092915050565b60006149fe8261332b565b9150614a098361332b565b9250828202614a178161332b565b91508282048414831517614a2e57614a2d614635565b5b5092915050565b7f45524337323155524953746f726167653a2055524920736574206f66206e6f6e60008201527f6578697374656e7420746f6b656e000000000000000000000000000000000000602082015250565b6000614a91602e83613284565b9150614a9c82614a35565b604082019050919050565b60006020820190508181036000830152614ac081614a84565b9050919050565b614ad082613279565b67ffffffffffffffff811115614ae957614ae8613560565b5b614af38254613b15565b614afe82828561401f565b600060209050601f831160018114614b315760008415614b1f578287015190505b614b298582614090565b865550614b91565b601f198416614b3f86613f00565b60005b82811015614b6757848901518255600182019150602085019450602081019050614b42565b86831015614b845784890151614b80601f891682614072565b8355505b6001600288020188555050505b505050505050565b60006060820190508181036000830152614bb381866132d0565b9050614bc26020830185613701565b8181036040830152614bd481846132d0565b9050949350505050565b6000614be98261332b565b9150614bf48361332b565b9250828203905081811115614c0c57614c0b614635565b5b92915050565b600081519050919050565b600082825260208201905092915050565b6000614c3982614c12565b614c438185614c1d565b9350614c53818560208601613295565b614c5c816132bf565b840191505092915050565b6000608082019050614c7c60008301876133c0565b614c8960208301866133c0565b614c966040830185613701565b8181036060830152614ca88184614c2e565b905095945050505050565b600081519050614cc2816131ea565b92915050565b600060208284031215614cde57614cdd6131b4565b5b6000614cec84828501614cb3565b91505092915050565b7f4552433732313a206d696e7420746f20746865207a65726f2061646472657373600082015250565b6000614d2b602083613284565b9150614d3682614cf5565b602082019050919050565b60006020820190508181036000830152614d5a81614d1e565b9050919050565b7f4552433732313a20746f6b656e20616c7265616479206d696e74656400000000600082015250565b6000614d97601c83613284565b9150614da282614d61565b602082019050919050565b60006020820190508181036000830152614dc681614d8a565b905091905056fe0a2d2d2d2d2d2d2d2d2d2d2d2d2d2d2d2d2d2d2d2d2d2d2d2d2d2d2d2d2d2d2d2d2d2d2d2d2d2d2d2d2d2d2d2d2d2d2d2d2d2d2d2d2d2d2d2d5265676973746572696e672025732e2573206f6e2074686520636f6e7472616374207769746820746f6b656e49442025642d2d2d2d2d2d2d2d2d2d2d2d2d2d2d2d2d2d2d2d2d2d2d2d2d2d2d2d2d2d2d2d2d2d2d2d2d2d2d2d2d2d2d2d2d2d2d2d2d2d2d2d2d2d2d2d0a4142434445464748494a4b4c4d4e4f505152535455565758595a6162636465666768696a6b6c6d6e6f707172737475767778797a303132333435363738392b2fa264697066735822122053064ea0f7c2527041e4bf6a117ba5d8aefb81be2878e099d994c331310a8e2f64736f6c634300081100333c73766720786d6c6e733d22687474703a2f2f7777772e77332e6f72672f323030302f737667222077696474683d2232373022206865696768743d22323730222066696c6c3d226e6f6e65223e3c706174682066696c6c3d2275726c282342292220643d224d302030683237307632373048307a222f3e3c646566733e3c66696c7465722069643d22412220636f6c6f722d696e746572706f6c6174696f6e2d66696c746572733d2273524742222066696c746572556e6974733d227573657253706163654f6e55736522206865696768743d22323730222077696474683d22323730223e3c666544726f70536861646f772064783d2230222064793d22312220737464446576696174696f6e3d22322220666c6f6f642d6f7061636974793d222e323235222077696474683d223230302522206865696768743d2232303025222f3e3c2f66696c7465723e3c2f646566733e3c7061746820643d224d37322e3836332034322e393439632d2e3636382d2e3338372d312e3432362d2e35392d322e3139372d2e3539732d312e3532392e3230342d322e3139372e35396c2d31302e30383120362e3033322d362e383520332e3933342d31302e30383120362e303332632d2e3636382e3338372d312e3432362e35392d322e3139372e3539732d312e3532392d2e3230342d322e3139372d2e35396c2d382e3031332d342e37323161342e353220342e35322030203020312d312e3538392d312e363136632d2e3338342d2e3636352d2e3539342d312e3431382d2e3630382d322e313837762d392e3331632d2e3031332d2e3737352e3138352d312e3533382e3537322d322e32303861342e323520342e323520302030203120312e3632352d312e3539356c372e3838342d342e3539632e3636382d2e33383720312e3432362d2e353920322e3139372d2e353973312e3532392e32303420322e3139372e35396c372e38383420342e353961342e353220342e353220302030203120312e35383920312e363136632e3338342e3636352e35393420312e3431382e36303820322e31383776362e3033326c362e38352d342e303635762d362e303332632e3031332d2e3737352d2e3138352d312e3533382d2e3537322d322e32303861342e323520342e32352030203020302d312e3632352d312e3539354c34312e3435362032342e3539632d2e3636382d2e3338372d312e3432362d2e35392d322e3139372d2e3539732d312e3532392e3230342d322e3139372e35396c2d31342e38363420382e36353561342e323520342e32352030203020302d312e36323520312e353935632d2e3338372e36372d2e35383520312e3433342d2e35373220322e3230387631372e343431632d2e3031332e3737352e31383520312e3533382e35373220322e32303861342e323520342e323520302030203020312e36323520312e3539356c31342e38363420382e363535632e3636382e33383720312e3432362e353920322e3139372e353973312e3532392d2e32303420322e3139372d2e35396c31302e3038312d352e39303120362e38352d342e3036352031302e3038312d352e393031632e3636382d2e33383720312e3432362d2e353920322e3139372d2e353973312e3532392e32303420322e3139372e35396c372e38383420342e353961342e353220342e353220302030203120312e35383920312e363136632e3338342e3636352e35393420312e3431382e36303820322e31383776392e333131632e3031332e3737352d2e31383520312e3533382d2e35373220322e32303861342e323520342e32352030203020312d312e36323520312e3539356c2d372e38383420342e373231632d2e3636382e3338372d312e3432362e35392d322e3139372e3539732d312e3532392d2e3230342d322e3139372d2e35396c2d372e3838342d342e353961342e353220342e35322030203020312d312e3538392d312e363136632d2e3338352d2e3636352d2e3539342d312e3431382d2e3630382d322e313837762d362e3033326c2d362e383520342e30363576362e303332632d2e3031332e3737352e31383520312e3533382e35373220322e32303861342e323520342e323520302030203020312e36323520312e3539356c31342e38363420382e363535632e3636382e33383720312e3432362e353920322e3139372e353973312e3532392d2e32303420322e3139372d2e35396c31342e3836342d382e363535632e3635372d2e33393420312e3230342d2e393520312e3538392d312e363136732e3539342d312e3431382e3630392d322e3138375635352e353338632e3031332d2e3737352d2e3138352d312e3533382d2e3537322d322e32303861342e323520342e32352030203020302d312e3632352d312e3539356c2d31342e3939332d382e3738367a222066696c6c3d2223666666222f3e3c646566733e3c6c696e6561724772616469656e742069643d2242222078313d2230222079313d2230222078323d22323730222079323d2232373022206772616469656e74556e6974733d227573657253706163654f6e557365223e3c73746f702073746f702d636f6c6f723d2223636235656565222f3e3c73746f70206f66667365743d2231222073746f702d636f6c6f723d2223306364376534222073746f702d6f7061636974793d222e3939222f3e3c2f6c696e6561724772616469656e743e3c2f646566733e3c7465787420783d2233322e352220793d223233312220666f6e742d73697a653d223237222066696c6c3d2223666666222066696c7465723d2275726c282341292220666f6e742d66616d696c793d22506c7573204a616b617274612053616e732c44656a6156752053616e732c4e6f746f20436f6c6f7220456d6f6a692c4170706c6520436f6c6f7220456d6f6a692c73616e732d73657269662220666f6e742d7765696768743d22626f6c64223e",
  "linkReferences": {},
  "deployedLinkReferences": {}
}